S01000006B657970616430312E7372656335
S113000045C000004BC0000049C0000047C00000CC
S113001045C0000043C0000041C000003FC00000D4
S11300203DC000003BC0000039C0000037C00000E4
S113003035C0000033C0000031C000002FC00000F4
S11300402DC000002BC0000029C0000027C0000004
S113005025C0000023C0000021C000001FC0000014
S11300601DC000001BC0000019C0000017C0000024
S113007015C0000013C0000011C000000FC0000034
S11300800DC000000BC0000009C0000011241FBEF9
S1130090CFEFD0E1DEBFCDBF61D066C0B1CF87EF77
S11300A08BBB89B3863F09F441C089B38D3F09F402
S11300B03FC089B38B3FF1F18FEF97E40197F1F7DC
S11300C000C000008FEE8BBB89B38E3FA9F189B3CA
S11300D08D3FA1F189B38B3D99F18FEF97E401979F
S11300E0F1F700C000008FED8BBB89B38E3F51F157
S11300F089B38D3F49F189B38B3D41F18FEF97E48B
S11301000197F1F700C000008FEB8BBB89B38E3FE2
S1130110F9F089B38D3FF1F089B38B3DE9F08FEFAE
S113012097E40197F1F700C00000089581E3089572
S113013082E3089583E3089584E3089585E30895AD
S113014086E3089587E3089588E3089589E308958D
S11301508AE2089580E3089583E2089588EF8ABBD4
S10F01608FEF84BB9CDFFECFF894FFCF30
S9030000FC
