S014000074696D6572636F756E7430342E7372656362
S113000045C0000060C000005EC000005CC000008D
S11300105AC0000058C0000056C0000054C0000080
S113002052C0000050C000004EC000004CC0000090
S11300304AC0000048C0000046C0000044C00000A0
S113004042C0000040C000003EC000003CC00000B0
S11300503AC0000038C0000036C0000034C00000C0
S113006032C0000057C000002EC000002CC00000A9
S11300702AC0000028C0000026C0000024C00000E0
S113008022C0000020C000001EC0000011241FBEBA
S1130090CFEFD0E1DEBFCDBF11E0A0E0B1E0E0ECF6
S11300A0F1E000E00BBF02C007900D92A231B1074E
S11300B0D9F721E0A2E1B1E001C01D92A531B20758
S11300C0E1F702D07BC09CCF8FEF8ABB12B81092AD
S11300D08B0085E480938A0080E280937D00809386
S11300E07C007894809100018BBB8091130188235C
S11300F0E1F380911401803118F08FE080931401B2
S1130100E0911401F0E0E050FF4F80818BBB10922E
S11301101301EBCF1F920F920FB60F9211242F935E
S11301203F936F937F938F939F93AF93BF93F89471
S11301308091120181110FC085E080938A00109292
S1130140890010928800109281001092800081E052
S11301508093120116C085E480938A002091800068
S113016030918100A3E8BDE21AD0880F892F881F3F
S1130170990B91958093140181E08093130110925F
S113018012017894BF91AF919F918F917F916F915C
S11301903F912F910F900FBE0F901F901895A29F23
S11301A0B001B39FC001A39F700D811D1124911D47
S11301B0B29F700D811D1124911D0895F894FFCFF5
S11301C03006054F666D7C077F67777C395E7971F1
S10501D00880A1
S9030000FC
