:1000000045C0000060C000005EC000005CC0000091
:100010005AC0000058C0000056C0000054C0000084
:1000200052C0000050C000004EC000004CC0000094
:100030004AC0000048C0000046C0000061C0000087
:1000400042C0000040C000003EC000003CC00000B4
:100050003AC0000038C0000036C0000034C00000C4
:1000600032C0000030C000002EC000002CC00000D4
:100070002AC0000028C0000026C0000024C00000E4
:1000800022C0000020C000001EC0000011241FBEBE
:10009000CFEFD0E1DEBFCDBF11E0A0E0B1E0E0E501
:1000A000F1E000E00BBF02C007900D92A231B10752
:1000B000D9F721E0A2E1B1E001C01D92A431B2075D
:1000C000E1F702D043C09CCF8FEF8ABB87E083BFAC
:1000D00088E481BF82E087BF21B781E090E002C061
:1000E000880F991F2A95E2F796B7892B86BF7894D7
:1000F000E0911301F0E0E050FF4F80818BBBF8CF1F
:100100001F920F920FB60F9211248F93F89481B71C
:10011000885B81BF809112018F5F809312018436CA
:1001200071F480911301803118F01092130105C011
:10013000809113018F5F80931301109212017894C4
:100140008F910F900FBE0F901F901895F894FFCFCE
:100150003F065B4F666D7C077F67777C395E797100
:02016000088015
:00000001FF
