S019000074696D6572636F756E74313662697430332E73726563B8
S113000045C0000060C000005EC000005CC000008D
S11300105AC0000058C0000056C0000054C0000080
S113002052C0000050C000004EC000004CC0000090
S113003060C0000048C0000046C0000044C000008A
S113004042C0000040C000003EC000003CC00000B0
S11300503AC0000038C0000036C0000034C00000C0
S113006032C0000030C000002EC000002CC00000D0
S11300702AC0000028C0000026C0000024C00000E0
S113008022C0000020C000001EC0000011241FBEBA
S1130090CFEFD0E1DEBFCDBF11E0A0E0B1E0EAE3F5
S11300A0F1E000E00BBF02C007900D92A231B1074E
S11300B0D9F721E0A2E1B1E001C01D92A331B2075A
S11300C0E1F702D038C09CCF8FEF8ABB1FBC85E01C
S11300D08EBD80E29CE19BBD8ABD80E187BF86BF67
S11300E07894E0911201F0E0E050FF4F80818BBBE7
S11300F0F8CF1F920F920FB60F9211248F939F93F4
S1130100F8948AB59BB5805E934E9BBD8ABD809161
S11301101201813118F01092120105C08091120170
S11301208F5F8093120178949F918F910F900FBEEF
S10D01300F901F901895F894FFCF6C
S113013A3F065B4F666D7C077F67777C395E797112
S105014A088027
S9030000FC
